{
  "_format": "hh-sol-artifact-1",
  "contractName": "HeadsOrTails",
  "sourceName": "contracts/HeadsOrTails.sol",
  "abi": [
    {
      "inputs": [],
      "stateMutability": "payable",
      "type": "constructor"
    },
    {
      "inputs": [
        {
          "internalType": "uint8",
          "name": "_isOrel",
          "type": "uint8"
        }
      ],
      "name": "makeBet",
      "outputs": [
        {
          "internalType": "bool",
          "name": "result",
          "type": "bool"
        }
      ],
      "stateMutability": "nonpayable",
      "type": "function"
    }
  ],
  "bytecode": "0x608060405233600160006101000a81548173ffffffffffffffffffffffffffffffffffffffff021916908373ffffffffffffffffffffffffffffffffffffffff160217905550606444426100539190610068565b61005d91906100c8565b600081905550610157565b6000610073826100be565b915061007e836100be565b9250827fffffffffffffffffffffffffffffffffffffffffffffffffffffffffffffffff038211156100b3576100b26100f9565b5b828201905092915050565b6000819050919050565b60006100d3826100be565b91506100de836100be565b9250826100ee576100ed610128565b5b828206905092915050565b7f4e487b7100000000000000000000000000000000000000000000000000000000600052601160045260246000fd5b7f4e487b7100000000000000000000000000000000000000000000000000000000600052601260045260246000fd5b6107b5806101666000396000f3fe608060405234801561001057600080fd5b506004361061002b5760003560e01c8063043336bf14610030575b600080fd5b61004a60048036038101906100459190610410565b610060565b60405161005791906104c2565b60405180910390f35b600060646000544442610073919061059b565b61007d919061059b565b6100879190610679565b6000819055506100ce6040518060400160405280600f81526020017f546865206e756d6265722069733a200000000000000000000000000000000000815250600054610201565b60018260ff1614806100e3575060028260ff16145b610122576040517f08c379a00000000000000000000000000000000000000000000000000000000081526004016101199061055f565b60405180910390fd5b60018260ff161480156101445750600060026000546101419190610679565b14155b8061016c575060028260ff1614801561016b5750600060026000546101699190610679565b145b5b156101b9576101b06040518060400160405280600a81526020017f25732077696e6e657221000000000000000000000000000000000000000000008152503361029d565b600190506101fc565b6101f76040518060400160405280601281526020017f536f7272792c20796f75206c6f73652e2e2e0000000000000000000000000000815250610339565b600090505b919050565b610299828260405160240161021792919061052f565b6040516020818303038152906040527f9710a9d0000000000000000000000000000000000000000000000000000000007bffffffffffffffffffffffffffffffffffffffffffffffffffffffff19166020820180517bffffffffffffffffffffffffffffffffffffffffffffffffffffffff83818316178352505050506103d2565b5050565b61033582826040516024016102b39291906104ff565b6040516020818303038152906040527f319af333000000000000000000000000000000000000000000000000000000007bffffffffffffffffffffffffffffffffffffffffffffffffffffffff19166020820180517bffffffffffffffffffffffffffffffffffffffffffffffffffffffff83818316178352505050506103d2565b5050565b6103cf8160405160240161034d91906104dd565b6040516020818303038152906040527f41304fac000000000000000000000000000000000000000000000000000000007bffffffffffffffffffffffffffffffffffffffffffffffffffffffff19166020820180517bffffffffffffffffffffffffffffffffffffffffffffffffffffffff83818316178352505050506103d2565b50565b60008151905060006a636f6e736f6c652e6c6f679050602083016000808483855afa5050505050565b60008135905061040a81610768565b92915050565b60006020828403121561042257600080fd5b6000610430848285016103fb565b91505092915050565b610442816105f1565b82525050565b61045181610603565b82525050565b60006104628261057f565b61046c818561058a565b935061047c818560208601610646565b61048581610708565b840191505092915050565b600061049d60298361058a565b91506104a882610719565b604082019050919050565b6104bc8161062f565b82525050565b60006020820190506104d76000830184610448565b92915050565b600060208201905081810360008301526104f78184610457565b905092915050565b600060408201905081810360008301526105198185610457565b90506105286020830184610439565b9392505050565b600060408201905081810360008301526105498185610457565b905061055860208301846104b3565b9392505050565b6000602082019050818103600083015261057881610490565b9050919050565b600081519050919050565b600082825260208201905092915050565b60006105a68261062f565b91506105b18361062f565b9250827fffffffffffffffffffffffffffffffffffffffffffffffffffffffffffffffff038211156105e6576105e56106aa565b5b828201905092915050565b60006105fc8261060f565b9050919050565b60008115159050919050565b600073ffffffffffffffffffffffffffffffffffffffff82169050919050565b6000819050919050565b600060ff82169050919050565b60005b83811015610664578082015181840152602081019050610649565b83811115610673576000848401525b50505050565b60006106848261062f565b915061068f8361062f565b92508261069f5761069e6106d9565b5b828206905092915050565b7f4e487b7100000000000000000000000000000000000000000000000000000000600052601160045260246000fd5b7f4e487b7100000000000000000000000000000000000000000000000000000000600052601260045260246000fd5b6000601f19601f8301169050919050565b7f57726f6e67206e756d6265722120456e7465723a2031202d2048656164732c2060008201527f32202d205461696c730000000000000000000000000000000000000000000000602082015250565b61077181610639565b811461077c57600080fd5b5056fea2646970667358221220a783167417842b33edacdcea6689daa66cd85f266e0e932b61d0ff0e314c9b7664736f6c63430008040033",
  "linkReferences": {},
  "deployedLinkReferences": {}
}