{
  "_format": "hh-sol-artifact-1",
  "contractName": "HeadsOrTails",
  "sourceName": "contracts/HeadsOrTails.sol",
  "abi": [
    {
      "inputs": [],
      "stateMutability": "payable",
      "type": "constructor"
    },
    {
      "inputs": [
        {
          "internalType": "uint8",
          "name": "_isOrel",
          "type": "uint8"
        }
      ],
      "name": "makeBet",
      "outputs": [],
      "stateMutability": "nonpayable",
      "type": "function"
    }
  ],
  "bytecode": "0x608060405233600160006101000a81548173ffffffffffffffffffffffffffffffffffffffff021916908373ffffffffffffffffffffffffffffffffffffffff160217905550606444426100539190610068565b61005d91906100c8565b600081905550610157565b6000610073826100be565b915061007e836100be565b9250827fffffffffffffffffffffffffffffffffffffffffffffffffffffffffffffffff038211156100b3576100b26100f9565b5b828201905092915050565b6000819050919050565b60006100d3826100be565b91506100de836100be565b9250826100ee576100ed610128565b5b828206905092915050565b7f4e487b7100000000000000000000000000000000000000000000000000000000600052601160045260246000fd5b7f4e487b7100000000000000000000000000000000000000000000000000000000600052601260045260246000fd5b61075f806101666000396000f3fe608060405234801561001057600080fd5b506004361061002b5760003560e01c8063043336bf14610030575b600080fd5b61004a600480360381019061004591906103f0565b61004c565b005b6064600054444261005d9190610551565b6100679190610551565b6100719190610623565b6000819055506100b86040518060400160405280600f81526020017f546865206e756d6265722069733a2000000000000000000000000000000000008152506000546101e1565b60018160ff1614806100cd575060028160ff16145b61010c576040517f08c379a000000000000000000000000000000000000000000000000000000000815260040161010390610515565b60405180910390fd5b60018160ff1614801561012e57506000600260005461012b9190610623565b14155b80610156575060028160ff161480156101555750600060026000546101539190610623565b145b5b1561019f5761019a6040518060400160405280600a81526020017f25732077696e6e657221000000000000000000000000000000000000000000008152503361027d565b6101de565b6101dd6040518060400160405280601281526020017f536f7272792c20796f75206c6f73652e2e2e0000000000000000000000000000815250610319565b5b50565b61027982826040516024016101f79291906104e5565b6040516020818303038152906040527f9710a9d0000000000000000000000000000000000000000000000000000000007bffffffffffffffffffffffffffffffffffffffffffffffffffffffff19166020820180517bffffffffffffffffffffffffffffffffffffffffffffffffffffffff83818316178352505050506103b2565b5050565b61031582826040516024016102939291906104b5565b6040516020818303038152906040527f319af333000000000000000000000000000000000000000000000000000000007bffffffffffffffffffffffffffffffffffffffffffffffffffffffff19166020820180517bffffffffffffffffffffffffffffffffffffffffffffffffffffffff83818316178352505050506103b2565b5050565b6103af8160405160240161032d9190610493565b6040516020818303038152906040527f41304fac000000000000000000000000000000000000000000000000000000007bffffffffffffffffffffffffffffffffffffffffffffffffffffffff19166020820180517bffffffffffffffffffffffffffffffffffffffffffffffffffffffff83818316178352505050506103b2565b50565b60008151905060006a636f6e736f6c652e6c6f679050602083016000808483855afa5050505050565b6000813590506103ea81610712565b92915050565b60006020828403121561040257600080fd5b6000610410848285016103db565b91505092915050565b610422816105a7565b82525050565b600061043382610535565b61043d8185610540565b935061044d8185602086016105f0565b610456816106b2565b840191505092915050565b600061046e602983610540565b9150610479826106c3565b604082019050919050565b61048d816105d9565b82525050565b600060208201905081810360008301526104ad8184610428565b905092915050565b600060408201905081810360008301526104cf8185610428565b90506104de6020830184610419565b9392505050565b600060408201905081810360008301526104ff8185610428565b905061050e6020830184610484565b9392505050565b6000602082019050818103600083015261052e81610461565b9050919050565b600081519050919050565b600082825260208201905092915050565b600061055c826105d9565b9150610567836105d9565b9250827fffffffffffffffffffffffffffffffffffffffffffffffffffffffffffffffff0382111561059c5761059b610654565b5b828201905092915050565b60006105b2826105b9565b9050919050565b600073ffffffffffffffffffffffffffffffffffffffff82169050919050565b6000819050919050565b600060ff82169050919050565b60005b8381101561060e5780820151818401526020810190506105f3565b8381111561061d576000848401525b50505050565b600061062e826105d9565b9150610639836105d9565b92508261064957610648610683565b5b828206905092915050565b7f4e487b7100000000000000000000000000000000000000000000000000000000600052601160045260246000fd5b7f4e487b7100000000000000000000000000000000000000000000000000000000600052601260045260246000fd5b6000601f19601f8301169050919050565b7f57726f6e67206e756d6265722120456e7465723a2031202d2048656164732c2060008201527f32202d205461696c730000000000000000000000000000000000000000000000602082015250565b61071b816105e3565b811461072657600080fd5b5056fea2646970667358221220a206cdf0b498a46e781ac63c2bd42fc62b87aa5fba16be9dadcfcf0c0d60524364736f6c63430008040033",
  "linkReferences": {},
  "deployedLinkReferences": {}
}